:020000040800F2
:1000000000080020B90000082D0100082D0100089B
:100010002D0100082D0100082D0100082D01000808
:100020002D0100082D0100082D0100082D010008F8
:100030002D0100082D0100082D0100082D010008E8
:100040002D0100082D0100082D0100082D010008D8
:100050002D0100082D0100082D0100082D010008C8
:100060002D0100082D0100082D0100082D010008B8
:100070002D0100082D0100082D0100082D010008A8
:100080002D0100082D0100082D0100082D01000898
:100090002D0100082D0100082D0100082D01000888
:1000A0002D0100082D0100082D0100082D01000878
:1000B000E50400082D01000880B584B000AF164BA0
:1000C000FB60164BBB60164A144BD31A7B6007E0EB
:1000D000BB685A1CBA60FA68511CF96012781A7031
:1000E0007B685A1E7A60002BF2D10E4BBB600E4A21
:1000F0000C4BD31A7B6004E0BB685A1CBA60002228
:100100001A707B685A1E7A60002BF5D100F060F8F7
:10011000C046BD4604B080BDCF09000800000020E5
:100120000000002000000020A400002080B500AFE7
:10013000FEE7C04680B582B000AF7860C0467B68FD
:100140005A1E7A60002BFAD1C046BD4602B080BD6F
:1001500080B500AF0D4B0D4A12680D490A401A6078
:100160000A4B0A4A126801210A431A60C046074B2B
:100170001B6804221340FAD0064B064A126801217C
:100180000A431A60C046BD4680BDC046001002400A
:10019000FFFFFFFE0C10024080B500AF0A4B0A4A79
:1001A000126802210A431A60084B084A126840216B
:1001B0000A431A60054B054A126880218A431A6077
:1001C000C046BD4680BDC0462C1002400004005011
:1001D00080B582B000AF00237B60FFF7B9FFFFF767
:1001E000DBFF96239B01180000F0AEF80F4B0F4A7F
:1001F000126808210A431A600D4B1800FFF79AFF96
:100200000A4B0A4A126808218A431A60084B1800F0
:10021000FFF790FF00F0E2FA0300180000F0AEFADA
:10022000044B180000F02CFAE0E7C046140400501C
:1002300080841E00CC09000890B585B000AF7860BE
:100240003960184B1B68002B02D101235B4224E06C
:100250000023FB600AE0FB685A1CFA603A68D41875
:10026000114B180000F0D8F9030023707B68013BA4
:100270001A00FB689A4205D90B4B180000F0F6F9FA
:10028000031EE8D1FB68002B06D03A68FB68D31840
:1002900000221A70FB6800E000231800BD4605B07C
:1002A00090BDC0469C0000200400002090B585B0A1
:1002B00000AF78603960204B1B68002B02D101230E
:1002C0005B4234E01D4B180000F0D0F90300BB6026
:1002D000BB684022D21A7B689A4202D202235B4258
:1002E00025E00023FB600BE03A68FB68D3181A781E
:1002F000124B1100180000F05FF9FB680133FB603E
:100300007B68FA689A42EFD30D4B1B6808221340B2
:100310000CD10B4B0A4A126808210A431A60094C97
:10032000064B180000F078F9030023600023180042
:10033000BD4605B090BDC0469C0000205000002086
:10034000004400402844004080B584B000AF78608D
:1003500072B64F4B00229A644D4B9A6C4C4B5A64C8
:100360004B4B5A6C4A4B1A644A4B00229A64494BD5
:100370009A6C484B5A64474B5A6C464B1A64464B2E
:1003800001221A60454B00221A60454B444A12680C
:1003900001210A431A60434B424A126880218902B4
:1003A0000A431A60A023DB05A022D20512683E4949
:1003B0000A431A60A023DB05A022D205126810218F
:1003C0008A431A60A023DB05A022D20512683749B0
:1003D0000A401A60364B364A126836490A431A6098
:1003E000334B334A126820218A431A60304B304A1B
:1003F0001268520052081A602F4B2F4A12682F4978
:100400000A401A602C4B2C4A12688021C9000A430A
:100410001A602B4B2A4A1268120112091A60284BE3
:10042000274A12688021C9050A431A60254BFB60E0
:100430007968F86800F0DEF90300FB60224B224A7D
:10044000126822490A401A60214B00221A60214B8F
:1004500000221A60204B00221A60204BFA681A60B2
:100460001B4B1B4A126864210A431A60184B184A36
:10047000126801210A431A60194B194A1268802137
:1004800049050A431A6062B6C046BD4604B080BD45
:1004900004000020500000209C00002000000020EC
:1004A0002C1002403810024020000080FFFFFFBFE8
:1004B0000C0000501000004020000050FFF0FFFF33
:1004C000240000500024F40028100240FFFFFDFF2C
:1004D0000044004004440040084400400C440040F4
:1004E00000E100E080B500AF084B1B68802213409C
:1004F00001D000F025F8054B1B682022134001D0E5
:1005000000F006F8C046BD4680BDC0461C44004011
:1005100080B500AF074B1B68DAB2074B110018001B
:1005200000F04AF8031E02D0044B01221A60C046B4
:10053000BD4680BD2444004004000020000000208F
:10054000B0B500AF164B180000F090F8031E07D0AE
:10055000144C134B180000F05FF8030023601BE0FD
:10056000114B114A126808218A431A600F4B1B680D
:100570004022134005D00E4B0D4A126840210A4319
:100580001A600A4B1B688022134005D0094B094AA8
:10059000126810210A431A60C046BD46B0BDC0466D
:1005A0005000002028440040004400401C4400400B
:1005B000204400401844004080B582B000AF78600D
:1005C0000A00FB1C1A707B681A6C7B685B6C9A4291
:1005D00005D17B689B6C002B01D0012317E072B61C
:1005E0007B681B6C591C7A6811647A68F91C09785D
:1005F000D1547B689B6C5A1C7B689A647B681B6C2B
:10060000402B02D17B6800221A6462B600231800D6
:10061000BD4602B080BDC04680B584B000AF7860F2
:100620007B689B6C002B01D100231AE072B67B68BB
:100630005B6C591C7A6851640F22BA187968CB5CDC
:1006400013707B685B6C402B02D17B6800225A647C
:100650007B689B6C5A1E7B689A6462B60F23FB18FA
:100660001B781800BD4604B080BDC04680B582B07E
:1006700000AF78607B689B6C1800BD4602B080BDFF
:1006800080B582B000AF78600B4B1B68002B09D19E
:1006900001235B420BE07B685A1C7A601900012041
:1006A000FFF704FE7B681B78002BF4D100231800B1
:1006B000BD4602B080BDC0469C00002090B585B00C
:1006C00000AF786039601F4B1B68002B02D10123FB
:1006D0005B4232E00023FB600B23FB1800221A7000
:1006E00018E0C046184B1800FFF7C0FF031EF9D0F2
:1006F0000B23FC18144B1800FFF78EFF0300237028
:10070000FB685A1CFA601A007B689B180B22BA1807
:1007100012781A703B685A1EFB689A4204DD0B235C
:10072000FB181B780D2BDCD1FB68002B04DDFB686C
:100730007A68D31800221A70FB681800BD4605B00D
:1007400090BDC0469C0000200400002080B582B00F
:1007500000AF78607B68002B07DB7B68092B04DC2B
:100760007B68DBB23033DBB203E07B68DBB237336C
:10077000DBB21800BD4602B080BDC04680B586B071
:1007800000AF786008237B610823FA187B69D318CF
:1007900000221A707B69013B7B6113E07B680F22AA
:1007A00013401800FFF7D2FF030019000823FA18BE
:1007B0007B69D3180A1C1A707B681B097B607B69F4
:1007C000013B7B617B69002BE8DA0823FB181800EA
:1007D000FFF756FFC046BD4606B080BD80B500AFEE
:1007E000034B1800FFF742FF03001800BD4680BD11
:1007F0000400002003460B437FD4002243088B42B1
:1008000074D303098B425FD3030A8B4244D3030B97
:100810008B4228D3030C8B420DD3FF22090212BA5C
:10082000030C8B4202D31212090265D0030B8B42D8
:1008300019D300E0090AC30B8B4201D3CB03C01AC2
:100840005241830B8B4201D38B03C01A5241430B9D
:100850008B4201D34B03C01A5241030B8B4201D38D
:100860000B03C01A5241C30A8B4201D3CB02C01AF8
:100870005241830A8B4201D38B02C01A5241430A70
:100880008B4201D34B02C01A5241030A8B4201D35F
:100890000B02C01A5241CDD2C3098B4201D3CB0106
:1008A000C01A524183098B4201D38B01C01A5241B5
:1008B00043098B4201D34B01C01A524103098B42B9
:1008C00001D30B01C01A5241C3088B4201D3CB00A4
:1008D000C01A524183088B4201D38B00C01A524187
:1008E00043088B4201D34B00C01A5241411A00D237
:1008F00001465241104670475DE0CA0F00D04942A0
:10090000031000D34042534000229C4603098B420F
:100910002DD3030A8B4212D3FC22890112BA030A97
:100920008B420CD3890192118B4208D38901921119
:100930008B4204D389013AD0921100E08909C3099E
:100940008B4201D3CB01C01A524183098B4201D3A0
:100950008B01C01A524143098B4201D34B01C01A8B
:10096000524103098B4201D30B01C01A5241C30803
:100970008B4201D3CB00C01A524183088B4201D372
:100980008B00C01A5241D9D243088B4201D34B008D
:10099000C01A5241411A00D20146634652415B10CF
:1009A000104601D34042002B00D5494270476346B0
:1009B0005B1000D3404201B5002000F005F802BDF5
:0C09C0000029F8D016E770477047C046C9
:0309CC000D0A0011
:0400000508000000EF
:00000001FF
